{"abi":[{"type":"constructor","inputs":[{"name":"Apsi_rev","type":"address","internalType":"address"},{"name":"Apsi_inrev","type":"address","internalType":"address"},{"name":"q","type":"uint256","internalType":"uint256"},{"name":"nm1modq","type":"uint256","internalType":"uint256"}],"stateMutability":"nonpayable"},{"type":"function","name":"ZKNOX_NTTFW","inputs":[{"name":"a","type":"uint256[]","internalType":"uint256[]"},{"name":"q","type":"uint256","internalType":"uint256"}],"outputs":[{"name":"","type":"uint256[]","internalType":"uint256[]"}],"stateMutability":"view"},{"type":"function","name":"ZKNOX_NTTFW","inputs":[{"name":"a","type":"uint256[]","internalType":"uint256[]"},{"name":"apsirev","type":"address","internalType":"address"}],"outputs":[{"name":"","type":"uint256[]","internalType":"uint256[]"}],"stateMutability":"view"},{"type":"function","name":"ZKNOX_NTTINV","inputs":[{"name":"a","type":"uint256[]","internalType":"uint256[]"},{"name":"q","type":"uint256","internalType":"uint256"}],"outputs":[{"name":"","type":"uint256[]","internalType":"uint256[]"}],"stateMutability":"view"},{"type":"function","name":"ZKNOX_NTTINV","inputs":[{"name":"a","type":"uint256[]","internalType":"uint256[]"},{"name":"apsiinvrev","type":"address","internalType":"address"}],"outputs":[{"name":"","type":"uint256[]","internalType":"uint256[]"}],"stateMutability":"view"},{"type":"function","name":"ZKNOX_NTT_HALFMUL","inputs":[{"name":"a","type":"uint256[]","internalType":"uint256[]"},{"name":"b","type":"uint256[]","internalType":"uint256[]"}],"outputs":[{"name":"","type":"uint256[]","internalType":"uint256[]"}],"stateMutability":"view"},{"type":"function","name":"ZKNOX_NTT_HALFMUL","inputs":[{"name":"a","type":"uint256[]","internalType":"uint256[]"},{"name":"b","type":"uint256[]","internalType":"uint256[]"},{"name":"q","type":"uint256","internalType":"uint256"}],"outputs":[{"name":"","type":"uint256[]","internalType":"uint256[]"}],"stateMutability":"view"},{"type":"function","name":"ZKNOX_VECADDMOD","inputs":[{"name":"a","type":"uint256[]","internalType":"uint256[]"},{"name":"b","type":"uint256[]","internalType":"uint256[]"},{"name":"q","type":"uint256","internalType":"uint256"}],"outputs":[{"name":"","type":"uint256[]","internalType":"uint256[]"}],"stateMutability":"pure"},{"type":"function","name":"ZKNOX_VECMULMOD","inputs":[{"name":"a","type":"uint256[]","internalType":"uint256[]"},{"name":"b","type":"uint256[]","internalType":"uint256[]"},{"name":"q","type":"uint256","internalType":"uint256"}],"outputs":[{"name":"","type":"uint256[]","internalType":"uint256[]"}],"stateMutability":"pure"},{"type":"function","name":"make_immutable","inputs":[],"outputs":[],"stateMutability":"nonpayable"},{"type":"function","name":"mul_NTTPoly","inputs":[{"name":"a","type":"uint256[]","internalType":"uint256[]"},{"name":"b","type":"uint256[]","internalType":"uint256[]"},{"name":"q","type":"uint256","internalType":"uint256"}],"outputs":[{"name":"","type":"uint256[]","internalType":"uint256[]"}],"stateMutability":"view"},{"type":"function","name":"o_psi_inv_rev","inputs":[],"outputs":[{"name":"","type":"address","internalType":"address"}],"stateMutability":"view"},{"type":"function","name":"o_psirev","inputs":[],"outputs":[{"name":"","type":"address","internalType":"address"}],"stateMutability":"view"},{"type":"function","name":"update","inputs":[{"name":"Apsi_rev","type":"address","internalType":"address"},{"name":"Apsi_inrev","type":"address","internalType":"address"},{"name":"q","type":"uint256","internalType":"uint256"},{"name":"nm1modq","type":"uint256","internalType":"uint256"}],"outputs":[],"stateMutability":"nonpayable"}],"bytecode":{"object":"0x618080604052600160809081526105c760a0908152610fcb60c052611be760e0526116686101005261102661012052610519610140526102d26101605261066e610180526104bc6101a090815261191d6101c0526123866101e052610db06102005261222b6102209081526126106102409081526121dc610260526111ef610280526119a16102a05261139f6102c05261193d6102e052612aba61030052611372610320526119706103405261230161036052612c4c610380526125c06103a08190526125b26103c0526112d56103e0526102336104005261246261042052610ab861044052610bbe610460526103e8610480526110e06104a0819052612fb06104c052610c136104e05261246e6105005261132061052081905261093e6105405261241661056052612d2b61058052611dfe6105a05261073d6105c052608c6105e05261066361060090815261253161062052612b686106405261109f61066052611c2361068052612ad36106a0526123806106c081905261243b6106e052610316610700526103bb61072052612b6f6107405261090f61076052612546610780526112ee6107a052610c3f6107c052610e806107e081905261270b61080052612bdb61082052610de161084052611d3c610860526108809790975261169f6108a052612eae6108c0526109a46108e052612c03610900526009610920526124e761094052612e216109605261297861098052611f4b6109a052611c846109c052611b2e6109e0908152610565610a00526109dd610a2052611051610a4052612201610a6052610b15610a80526114fe610aa052611102610ac0526082610ae05261095c610b0052611164610b2052610ce0610b40819052612094610b60908152612f8b610b8052612655610ba052610895610bc0526113cb610be052612c48610c0052610ea4610c2052611687610c4090815261033b610c6052610cd4610c80908152610b41610ca0526113e4610cc0526127d8909352612824610d0052612328610d2052612358610d4052612d28610d6052612961610d8052612a6d610da05261014e610dc05261097a610de052611218610e005261167b610e2052612b15610e4052611124610e6052612922909a52610e7b610ea052610e6e610ec052611bc6610ee052612e9e610f0052610d36610f20526109f4610f4052611f7a610f605261131a610f80526118ea610fa052612556610fc052610f5c610fe0526115a661100052612f7061102052610d8361104052610e356110605261067f611080526106f16110a0526105926110c052611dd3909652610a90611100526114ab61112052611cb7611140526121cd611160526123b4611180526111a09a909a52612ffe6111c052611eac6111e052610876611200526120b661122052611cca61124052612f9061126052610d24611280526129686112a05261233a6112c052610fd96112e05261087e61130052611eed909352610b1f61134052611ec361136052611bb6611380526125256113a052612a356113c05261131f6113e0908152610901611400526113b261142052610fd5611440526125ac61146052610f9161148052611cd86114a0526101dc6114c052610dcb6114e0526101a461150052611a4a6115205261088261154052610608611560526124396115805260f36115a0526124496115c052612d626115e05261160097909752611447611620526122b9611640526126a26116605261238f61168052611ae26116a0526127b36116c05261065e6116e052612b80611700819052610b44611720526120316117405261273861176052610caf611780526125836117a052610b996117c052610f8a6117e052611b2d61180052610db6611820526126bf611840526124d061186052611d9761188052611fd26118a0526106016118c052612f0f6118e05261218961190052610a766119205261139b6119405261022161196052611cec611980526103f96119a0526129a16119c052611c256119e052612a61611a005261214e611a2052610bfa611a4052612fe6611a6052612bec611a8052610b2b611aa0526109b1611ac052611c6d611ae052611b0094909452611642611b2052610162611b4052611d04611b6052610186611b8052612cfc611ba052610ec2611bc052612108611be0526101ba611c0052610961611c20526113ed611c4052612bd6611c6052611370611c80526129ba611ca05261036b611cc052610ec4611ce052611c6e611d0052612c17611d2052611d40969096526110bc611d6052611786611d80908152612456611da052610985611dc052610e3e611de052612776611e00526125fb611e2052611797611e405261268b611e6052612e4e611e8052611f10611ea0908152612a9f611ec052610778611ee052612e14611f0052612001611f20526126b4611f4052611544611f6052612351611f80526104b7611fa05261149d611fc052610490611fe052612e6d61200052611225612020526104296120405261085f61206052610f75612080908152610b176120a0526127b26120c05260976120e052612e526121005261062b612120526109c96121405261171261216052603461218052610c666121a05261052b6121c052610ace6121e052610d08612200526117a76122205261190f612240526102a561226052610d7561228052611d556122a05261125a6122c0526113c16122e052612f41612300908152612ad86123205261280061234081905261133061236052611479909a526124996123a052610c376123c0526110496123e052610d9a6124005261031361242052611aa561244052612c0f61246052612fc76124805260f16124a052612c166124c052610dcc6124e052612c8c612500526117786125205261285d61254052611c7061256052610b1c61258052610d6e6125a052611f8d9097526103cf6125e0526116316126005261226c61262052608e6126405261045161266052610ff0612680526101a56126a052610e126126c05261184d6126e0526112106127005261184461272052610cbf612740526121f1612760526116fe612780526112ae6127a0526115da6127c052610bd56127e0526110759098526101f86128205261025d61284052612703612860526107f1612880526120636128a05261287f6128c0526120da6128e052612c3461290052612b1b61292052612ab26129405261153b61296052610e7e612980526118346129a052611b266129c0526115466129e05261206d612a00526101d4612a2052612ec5612a4052612e83612a6052611808612a8052611354612aa052612e71612ac052612941612ae052611809612b005261191b612b2052610e3b612b4052611527612b60526038909452612382612ba052611456612bc052611a68612be0526106a6612c005261283e612c2052612d73612c4052610ded612c60526114c3612c8052612016612ca052611ccd612cc0526110e4612ce052612788612d0052612df7612d20526113d7612d4052610cbe612d6052612b03612d8052610928612da052611a3b612dc0526107b5612de052611725612e00526103fa612e2052610dba612e4052612bf0612e6052611d4c612e8052611e8e612ea0526115a1612ec05261128d612ee052612134612f0052612f6e612f2052611550612f4052612f6093909352611abc612f80526120ed612fa052611e49612fc05261041a612fe0526117e661300052610eea61302052612586613040526104a6613060526116f4613080526108e96130a0526107ef6130c0526114d56130e05261206a6131005261312095909552612f6561314052610acf613160526101c5613180526118ed6131a0526101a26131c052610ebc6131e052611535613200526112a66132205261050d6132405261326091909152610939613280526107336132a05261242b6132c0526110136132e05260da61330052610b5c613320526122976133405261223861336052610b42613380526128f46133a0526107a26133c0526108036133e05261098f613400526118036134205261344092909252610f7b6134605261074261348052611d6f6134a052610cf36134c052612e576134e052610b6d6135005261015b61352052610ead613540526107b76135605261296461358052610bc16135a05260ae6135c052612d2e6135e05261254f613600526116ec61362052610a5f6136405261199a613660526105e861368052612ea36136a0526115076136c0526128ea6136e05261237f61370052611e7461372052611b08613740526127f8613760526118e6613780526105cb6137a05260316137c052612b126137e0526105d1613800526109c4613820526129d2613840526117366138605261057c61388052612ebc6138a052612b876138c0526103b46138e052610fd161390052610e9061392052610487613940526117666139605261028c613980526116866139a05261182e6139c052612eda6139e052610fb0613a0052610fed613a2052610b67613a4052610eb2613a60526118b8613a8052611c0f613aa0526129c7613ac0526107aa613ae052611f37613b0052613b2052612f59613b405261257d613b6052611bc1613b80526104b0613ba0526117ea613bc052612606613be052610f74613c0052610550613c20526117e7613c40526114b1613c6052610bee613c8052611a93613ca0526123ce613cc0526106d3613ce05261171f613d0052611151613d2052610efa613d4052611489613d60526102ab613d805261099b613da0526121b9613dc052612fc1613de05261263a613e005261247d613e205261196b613e405261061e613e6052612cbe613e8052611850613ea052610df2613ec052611f71613ee052610c4e613f0052610527613f2052610fce613f4052612d3c613f60526107a6613f8052611f1f613fa05261081e613fc052610458613fe052612bdf6140005261201261402052612c67614040526101b961406052610722614080526124936140a05261239e6140c0526111896140e052610e7c61410052610ca661412052612b9161414052610d7961416052611ba8614180526104446141a052610d1f6141c052610c856141e052611f58614200526121a36142205261287961424052612e316142605261081461428052612a946142a0526111346142c05261015a6142e052610c5b6143005261204161432052611d19614340526117ef61436052612f8461438052612de56143a052612a0b6143c05261107e6143e052611f7361440052612d9d614420526122d961444052611f7e61446052611c3c61448052612b3f6144a052612e4b6144c052610dbb6144e0526123336145005261176961452052611add61454052611f9061456052614580919091526129486145a0526110076145c0526126846145e052612d34614600526121fc6146205261055d61464052610ba661466052610d7861468052612eaa6146a0526111ba6146c0526107746146e05261127761470052612b496147205261074a61474052611ba6614760526127c3614780526102cc6147a05261278d6147c052611ad96147e0526106a96148005261099261482052612cd361484052614860919091526127f0614880526116c26148a052611e2d6148c05261225a6148e0526106dc614900526110316149205261223361494052612088614960526113c7614980526110506149a05261214c6149c052612a136149e05261099d614a00526108e3614a2052611f56614a4052611615614a6052611a25614a805261189e614aa052612dbe614ac052610f31614ae05260d4614b00526118b3614b20526123d7614b4052610ad1614b6052611666614b8052610498614ba052611584614bc052612b06614be0526112fc614c0052612b9c614c2052612b96614c4052612a5c614c6052612e41614c80526103f6614ca052611d54614cc052611cc5614ce052612ad2614d0052610e17614d2052611470614d405261209b614d6052612fbd614d805261272d614da052611e2b614dc0526116cc614de052614e00919091526105ff614e2052612564614e4052603c614e6052611e68614e8052612730614ea052612a78614ec05261162c614ee052610c0f614f0052611936614f2052611cee614f4052610f87614f6052611c9e614f8052612161614fa052614fc052610bf0614fe0526116d5615000526115d461502052612e65615040526150606113ee81526020016104e781526020016101fa8152602001612a918152602001611698815260200161258f81526020016108a48152602001610d0a8152602001612335815260200161049a81526020016125298152602001611a9b815260200161224a815260200161286b8152602001610d50815260200161048d8152602001610a0f81526020016128d581526020016101a98152602001612e798152602001612778815260200161017981526020016111e281526020016101778152602001610654815260200161040e8152602001612c6681526020016117c5815260200161104781526020016117cc81526020016108b78152602001610af08152602001612f4081526020016105f2815260200161086781526020016122f28152602001611fea815260200161138a8152602001612fed8152602001611e01815260200161142b815260200161293181526020016105228152602001610b4e8152602001610e468152602001612eaf8152602001610f6b815260200161266a81526020016119c78152602001611cb68152602001611c0681526020016104e0815260200161098a815260200161208a815260200161195c81526020016118ba815260200161279d815260200161165c8152602001612ad48152602001610799815260200161040581526020016122f18152602001611a23815260200161289d8152602001610e288152602001611aa9815260200161132a815260200161123e81526020016102008152602001611e378152602001612c1f81526020016124ad8152602001612f12815260200161070c815260200161057b81526020016118338152602001611bbc8152602001610196815260200161296a8152602001611b6d8152602001612f6f81526020016122d2815260200161270e8152602001611f128152602001610d4181526020016121108152602001611f768152602001611cd081526020016122398152602001612d9381526020016106c9815260200161119381526020016116288152602001612073815260200161247e8152602001612d8581526020016115e981526020016111fd8152602001610a81815260200160b48152602001611fd781526020016114638152602001610581815260200160cc8152602001611a7c815260200161264e81526020016108068152602001610540815260200161241f81526020016101cf81526020016122b28152602001610f8d81526020016105bc815260200161117b8152602001611b838152602001610bc981526020016104d481526020016123d081526020016112618152602001610a288152602001612be08152602001611283815260200161109b81526020016104ca8152602001611a738152602001612e9581526020016109388152602001610bd481526020016114608152602001612e3f81526020016128698152602001612dbf81526020016114f88152602001612e038152602001611dcc8152602001610a3e8152602001611af781526020016122e18152602001611db58152602001611bf28152602001612fc2815260200161212181526020016121ab81526020016109458152602001611c868152602001612a8b81526020016123ef815260200161033a81526020016113b3815260200161169d81526020016122538152602001611a0f8152602001612987815260200161240881526020016105e28152602001611e7e8152602001611647815260200161126f8152602001612d1281526020016118f58152602001612c73815260200161125581526020016126df8152602001612e60815260200161270c81526020016117fa8152602001612274815260200161115b81526020016122a78152602001611c12815260200161289e815260200161070a81526020016129ee8152602001610636815260200161113b81526020016104c7815260200161091e8152602001610b828152602001611aac8152602001610a4d815260200161119e8152602001610371815260200161016d815260200161287a81526020016103f78152602001611c528152602001611a5681526020016109b58152602001610388815260200160188152602001612aa68152602001612b018152602001612d9b81526020016103d48152602001612d5781526020016113da8152602001611e138152602001611457815260200161202f815260200161034c8152602001611baf8152602001610c958152602001611f5081526020016121048152602001610a2381526020016114a981526020016119e381526020016102378152602001610b7d815260200161057e8152602001610a498152602001611b1c8152602001610b818152602001610ca08152602001612edc8152602001610eb98152602001611d0a8152602001610f688152602001611ffe8152602001611a6781526020016115e48152602001612b1081526020016124428152602001612786815260200161226981526020016123d1815260200161182881526020016119f381526020016117c6815260200161223181526020016114fa815260200161209c815260200161215881526020016105028152602001610df481526020016124f181526020016107e5815260200161127a8152602001610c9d81526020016106aa8152602001610f5981526020016113be8152602001610c52815260200161232c8152602001611ef98152602001612ffa815260200161079081526020016121768152602001612cb48152602001612d00815260200161159681526020016032815260200160d881526020016102ff8152602001610edd8152602001611039815260200161275c81526020016104ff8152602001612ca0815260200161259181526020016114328152602001612f448152602001610c2c815260200161276081526020016106e38152602001610ee781526020016106c6815260200161054681526020016116c881526020016120e4815260200161114781526020016105fa815260200161069e815260200161273481526020016128b58152602001612557815260200161152381526020016112d4815260200161048881526020016123eb8152602001611e5b8152602001610b188152602001612653815260200161106281526020016124368152602001611c9381526020016111d58152602001611c2b815260200161290a81526020016103b08152602001611d5f8152602001611b5a81526020016121ac8152602001611dc88152602001611ae38152602001610bcc8152602001611629815260200161152281526020016104e381526020016129038152602001611b6681526020016107f38152602001612bf1815260200161181481526020016128a78152602001611ff08152602001612fb981526020016128cf8152602001610f008152602001610a9881526020016112e28152602001610b0c815260200161110081526020016104d9815260200161111a8152602001610d7b8152602001610ffe8152602001610be5815260200161169581526020016125ae8152602001612bba8152602001611da881526020016122078152602001612277815260200161295c8152602001611e698152602001612cf78152602001610a4281526020016102128152602001612a388152602001612474815260200161248581526020016107fe815260200161230c815260200161261d81526020016122fd8152602001612f768152602001610cc48152602001610ed38152602001610739815260200161197181526020016111ab81526020016110cd81526020016101c98152602001600881526020016122838152602001610eae8152602001611f878152602001611126815260200161271d81526020016103d68152602001610a21815260200161036f81526020016125d781526020016128948152602001612e0b8152602001611c0381526020016117af815260200161213081526020016120fb8152602001610625815260200161175181526020016112298152602001612490815260200161178a81526020016104068152602001612e2f815260200161297081526020016121148152612c97602082015261270460408201526116126060820152612f57608082015261028860a0820152612f6b60c082015261090360e0820152611f40610100820152612cea61012082015261267f6101408201526124c8610160820152610b0b61018082015261261a6101a0820152612ba16101c082015260156101e082015261195161020090910152611da590600590610400613e10565b5060405180618000016040528060018152602001612a3a815260200161141a81526020016120368152602001612d2f8152602001612ae88152602001611fdb81526020016119998152602001610e2581526020016109f18152602001610dd681526020016122518152602001610c7b81526020016116e48152602001612b458152602001612993815260200161244381526020016125498152602001610b9f8152602001612dce8152602001611d2c8152602001610a4f8152602001610a4181526020016103b58152602001610d0081526020016116918152602001611c8f815260200161054781526020016116c48152602001611c6281526020016116608152602001611e1281526020016112c58152602001612220815260200161042681526020016108f6815260200161218181526020016123c28152602001611d138152602001610abb81526020016126f281526020016104928152602001612c468152602001612ceb8152602001610bc68152602001610c81815260200161052e81526020016113de8152602001611f6281526020016104998152602001610ad0815260200161299e8152602001612f7581526020016128c4815260200161120381526020016102d68152602001610beb81526020016126c38152602001611ce18152602001610b9381526020016123ee815260200160518152602001611f218152602001612c1981526020016121cc815260200161227e815260200160918152602001611a5b81526020016120a58152602001610aab81526020016117178152602001611ce78152602001611087815260200161260d81526020016122cb8152602001610163815260200161143b8152602001612193815260200161218681526020016106df8152602001611edd81526020016104ec81526020016119868152602001611de981526020016126878152602001612eb3815260200161059481526020016106a081526020016102d98152602001610ca98152602001610cd981526020016107dd81526020016108298152602001611c1d81526020016124c0815260200161232d8152602001612cc6815260200161197a815260200161215d81526020016103b98152602001611c36815260200161276c81526020016109ac815260200160768152602001610f6d81526020016123218152602001611e9d81526020016126a58152602001612f7f8152602001611eff8152602001611b0381526020016124ec8152602001610e008152602001611fb081526020016126248152602001612a9c81526020016114d3815260200161137d81526020016110b6815260200161068981526020016101e08152602001610b1a8152602001612ff881526020016103fe815260200161265d815260200161015381526020016119628152602001612de181526020016127a28152602001612bd88152602001611ddc81526020016101948152602001612b718152602001611b648152602001612b4a8152602001610cb08152602001611abd815260200161094d815260200161100081526020016101ed8152602001612889815260200161056281526020016110f181526020016101b38152602001610976815260200161186a8152602001610a06815260200161088b81526020016121c3815260200161267c8152602001610bab815260200161187b8152602001611f458152602001611c2181526020016103ea8152602001611393815260200161213d8152602001612c9681526020016106478152602001611c91815260200161042b8152602001611c1481526020016126a08152602001612e478152602001610ef9815260200161213f81526020016103058152602001612e7b81526020016112fd8152602001612e9f81526020016119bf81526020016124a18152602001611394815260200161265081526020016124d681526020016104158152602001601b81526020016124078152602001610eb381526020016105a081526020016113dc81526020016106608152602001612c0881526020016113158152602001612de08152602001611c66815260200161258b8152602001610e78815260200160f28152602001612a00815260200161102f815260200161126a8152602001610b318152602001610942815260200161224b81526020016114d4815260200161207781526020016124688152602001610a7e815260200161235281526020016108c98152602001610fd081526020016124bd815260200161048181526020016129a3815260200161084e815260200161151f8152602001610c72815260200161095f8152602001610d488152602001611bba81526020016123c1815260200161029f8152602001610bb88152602001612f0e8152602001610bc881526020016129f9815260200161277f81526020016115b78152602001612e5d81526020016122368152602001612e25815260200161132981526020016120708152602001610a55815260200161202c8152602001611c4f81526020016127008152602001611ce281526020016105cc8152602001610adc815260200161144b815260200161113e81526020016124e28152602001611114815260200161278381526020016120288152602001610cc7815260200161069981526020016122dd8152602001607181526020016113378152602001610f4b815260200161278b8152602001611155815260200160038152602001612f618152602001610c4d8152602001610e34815260200161134a8152602001611b568152602001612571815260200161122e8152602001612a6f815260200161291081526020016129828152602001612e48815260200161039a8152602001610fef81526020016104228152602001612ba981526020016127e381526020016110e2815260200161285b81526020016102c581526020016120338152602001612ada81526020016123b38152602001611090815260200161220f81526020016117b1815260200161034381526020016129e381526020016116968152602001610b8481526020016109c7815260200160408152602001610e4881526020016126668152602001612d568152602001611b7881526020016121078152602001611eb081526020016118e2815260200161292e8152602001610c33815260200161156e81526020016124138152602001611b50815260200161181a8152602001612ab1815260200161208d81526020016109fb81526020016118178152602001612b5181526020016114408152602001610a84815260200160a88152602001610d0181526020016110ca8152602001612857815260200161063a81526020016113f28152602001611749815260200161214f815260200161249a81526020016120148152602001612051815260200161012781526020016117d3815260200161197b8152602001612d75815260200161189b8152602001612b7a815260200161217181526020016120308152602001612c4d815260200161047a81526020016101458152602001612a8581526020016118cb815260200161062f815260200161263d8152602001612a3081526020016104ef8152602001612fd08152602001612a36815260200161171b815260200161080981526020016114f9815260200161118d8152602001610c8281526020016107178152602001611afa815260200161015e8152602001612a19815260200161166781526020016125a281526020016119158152602001610ab281526020016102d38152602001612f538152602001612440815260200161069d815260200161284a81526020016121548152602001612ea6815260200161249481526020016101aa815260200161230e815260200161129281526020016128bf81526020016120868152602001612dc181526020016117fe815260200161267281526020016127fe815260200161285f815260200161070d81526020016124bf8152602001610dc98152602001610d6a81526020016124a58152602001612f278152602001611fee8152602001610bd681526020016128ce81526020016126c881526020016112818152602001612af48152602001611d5b8152602001611acc81526020016121458152602001612e5f81526020016117148152602001612e3c81526020016125328152602001609c8152602001610f818152602001610f978152602001611b2c81526020016128128152602001612718815260200161190d8152602001612b5b8152602001610a7b8152602001612117815260200161181b8152602001612be781526020016111b88152602001610f14815260200161154581526020016111618152602001611ab1815260200160938152602001610ecd8152602001611d748152602001611a60815260200161117381526020016112b5815260200161041181526020016122478152602001612c0781526020016118dc815260200161284c81526020016115c681526020016126d981526020016104fe81526020016123438152602001611c2a815260200161020a81526020016108798152602001611f1d81526020016113348152602001610feb8152602001611b3e8152602001612214815260200161028e81526020016107c3815260200161295b81526020016115998152602001611bab8152602001610c7f8152602001612fc98152602001611ada81526020016121c681526020016116e681526020016117f881526020016106c081526020016101908152602001611cad81526020016117f9815260200161017e815260200161013c8152602001612e2d8152602001610f948152602001611abb81526020016114db81526020016117cd81526020016121838152602001611ac6815260200161054f81526020016104e681526020016103cd8152602001610f2781526020016107828152602001610f9e815260200161281081526020016108fe8152602001612da48152602001612e098152602001611f8c815260200161242c8152602001611a278152602001611d5381526020016119038152602001610e10815260200161234281526020016117bd8152602001611df181526020016117b481526020016121ef8152602001612e5c81526020016120118152602001612bb08152602001612f738152602001610d9581526020016119d08152602001612c328152602001611074815260200161229381526020016124e5815260200161139181526020016107a481526020016118898152602001610375815260200161223581526020016103eb8152602001612f108152602001603a81526020016103f2815260200161155c8152602001612cee81526020016122678152602001611fb881526020016123ca8152602001610b688152602001611b888152602001611cd181526020016108018152602001610529815260200160c08152602001611c408152602001611da781526020016112ac815260200161228c8152602001612d5c81526020016116f2815260200161185a81526020016122f981526020016125338152602001612ad6815260200161239b8152602001612fcd81526020016118ef815260200161263881526020016129d681526020016101af8152602001612f6a815260200161084f81526020016124ea815260200161208c81526020016116b08152602001612fec815260200161046081526020016109e781526020016124f68152602001610b398152602001610982815260200161031781526020016110c181526020016126fe815260200160968152602001612d79815260200160aa81526020016119ef81526020016108fd815260200161036a8152602001610eed815260200161069181526020016101d28152602001612bfb81526020016118778152602001610b718152602001611dd881526020016118b081526020016129dc8152602001610f068152602001610ed1815260200161185281526020016113fe81526020016101f6815260200161076d8152602001610a2a8152602001612c9281526020016125e08152602001612c2b81526020016108e48152602001611edb815260200161107a81526020016121538152602001610d7e8152602001612ff98152602001612e388152602001611f348152602001611e56815260200161169081526020016128c8815260200161212e815260200161233d8152602001608b8152602001610d0481526020016109e48152602001610cf581526020016128038152602001610b7c8152602001610b8d81526020016105c98152602001612def81526020016125bf815260200161030a815260200161119881526020016106a58152602001610d8a8152602001610dfa815260200161125981526020016104478152602001610a53815260200161196c815260200161241c815260200161200381526020016122868152602001611ee78152602001612b288152602001611f0181526020016124f58152602001611d1f815260200161256981526020016121018152602001610732815260200160488152602001611011815260200161075a81526020016117ed8152602001610410815260200161280e815260200161149b81526020016106fe8152602001612b1e8152602001611adf81526020016119d88152602001612435815260200161151e81526020016112398152602001610e5581526020016114a781526020016112a28152602001612c5181526020016106f781526020016113d68152602001611e2c815260200161136e8152602001610bcb8152602001611f9f81526020016109ae81526020016124e981526020016111a68152602001610c168152602001612b798152602001611d2d8152602001611ade8152602001610aaa815260200161074c81526020016108cd81526020016129638152602001612a078152602001611eba8152602001610f1d81526020016119398152602001612abb815260200161293b815260200161211a815260200161291e81526020016108a181526020016123d5815260200160bd8152602001611bcf8152602001610a7081526020016103618152602001612b0281526020016108a58152602001611fc881526020016121248152602001612d028152602001612f298152602001612fcf8152602001611a6b8152602001610301815260200161034d8152602001610e8b81526020016128718152602001600781526020016111088152602001610cd581526020016123af8152602001611c4381526020016120a8815260200161295781526020016123648152602001611d87815260200161281c8152602001610b10815260200161220d8152602001612aff8152602001610ea98152602001610f658152602001611b078152602001610dd0815260200161183b815260200161160e81526020016117d98152602001610c308152602001610d98815260200161087b8152602001610bbf81526020016104f18152602001611a1d815260200161159a8152602001611003815260200161209981526020016112f7815260200161214881526020016101258152602001612361815260200161248081526020016114e581526020016125b88152602001612a8381526020016124848152602001612dca815260200161161e8152602001611b5881526020016125de8152602001610efd81526020016110b1815260200161236c81526020016114528152602001612cb58152602001610fd28152602001611baa81526020016111ee8152602001611c2781526020016102aa8152602001612c2d81526020016102668152602001610500815260200161055b8152602001612fe98152602001612c79815260200161264c81526020016115ab81526020016113af8152602001612c0a81526020016107878152602001612e948152602001612c908152602001611e6381526020016125b48152602001611555815260200161247f81526020016126e38152602001612b3a8152602001611ec681526020016129cb815260200161061381526020016128f7815260200161076381526020016113ef8152602001610d5a8152602001611ea68152602001610d8d815260200161180781526020016108f581526020016101a181526020016109228152602001611dac815260200161038e815260200161170c81526020016102ef8152602001611d9281526020016119ba81526020016111838152602001612a1f8152602001610bf9815260200161067a81526020016115f28152602001610dae81526020016119648152602001611c4e8152602001612cc78152602001610c128152602001610576815260200161137b81526020016126bc8152602001610e568152602001610ee08152602001603f815260200161140f815260200161124c8152602001610d20815260200161150a81526020016125c3815260200161123581526020016101fe8152602001611b098152602001610242815260200161079881526020016101c28152602001611ba1815260200161242d81526020016126c9815260200161016c815260200161158e8152602001612b378152602001611f668152602001611d7e815260200161042181526020016125d98152602001611da08152602001610c318152602001612b2d8152602001612438815260200161147e8152602001611e868152602001612a4581526020016120748152602001610d4f8152602001612e328152602001610be28152602001612ac181526020016127fb81526020016109b381526020016115858152602001612f358152602001612a808152602001611b9e815260200161102a8152602001612f4d81526020016125808152602001611e048152602001611a18815260200161027c8152602001610b838152602001610f8e81526020016119d98152602001611e6e8152602001612938815260200161026e8152602001610dc88152602001611331815260200161108b8152602001610ef181526020016122c081526020016110ef81526020016108f38152602001610d2f81526020016092815260200161149481526020016106978152602001612e6b815260200161144581526020016117ce8152602001612a8681526020016128f5815260200160ef8152602001610b5481526020016103e281526020016111ca8152602001612e018152602001611dc38152602001611cd7815260200161155881526020016121d9815260200161076481526020016115de8152602001610d108152602001612bfc8152602001612868815260200161052d81526020016119a58152602001610864815260200161174781526020016116a58152602001610f7781526020016126778152602001612b2181526020016113fb815260200161134b815260200161163a81526020016109978152602001612096815260200161015281526020016121bb81526020016124b38152602001612adf81526020016106d08152602001611bd68152602001611200815260200160148152602001611c7781526020016110178152602001610d0f815260200161279a8152602001612a0f815260200160c18152602001612511815260200161274a81526020016118358152602001611fba815260200161183c815260200161039b8152602001612bf381526020016129ad8152602001612e8a8152602001611e1f8152602001612e88815260200161088981526020016101888152602001612e58815260200161072c81526020016125f28152602001612b7481526020016122b181526020016107968152602001610db781526020016115668152602001610ad88152602001612b678152602001610ccc81526020016122f7815260200161275d8152602001610a72815260200161196981526020016105708152602001612e078152602001612b1a8152602001611c13815260200161019c8152602001611a2d815260200161192c815260200161241181526020016126218152602001610ea08152602001611363815260200161207a815260200161131381526020016116cb81526020016123f281526020016119d5815260200161058981526020016108d181526020016111998152602001612fc58152602001610a9d8152602001612a028152602001612381815260200161193581526020016111d681526020016108d4815260200160448152602001610f668152602001611b9181526020016121ea815260200161052f815260200161133c81526020016112ad8152602001612c0b81526020016101c081526020016105a5815260200161046b81526020016104658152602001611d0581526020016104fb8152602001611a7d8152602001612b69815260200161199b81526020016125308152602001610c2a815260200161174e8152602001612f2d81526020016120d08152602001610243815260200161176381526020016115dc81526020016119ec81526020016110ab815260200161271e815260200161266481526020016105ee8152602001610eb58152602001611fb18152602001611c3a8152602001610f798152602001610dce8152602001611fd081526020016129258152602001610da781526020016111d4815260200161193f81526020016108118152602001612e61815260200161032e815260200161266f8152602001612958815260200161152881526020016108748152602001612d35815260200161083e815260200161145b81526020016128b781526020016104b88152602001611d8a815260200161288d8152602001611e4781526020016101578152602001612289815260200161245b8152602001612aa48152602001610e0581526020016102cd815260200161097d8152602001611ffa81526020016106b98152602001612a018152602001611071815260200161152481526020016118988152602001610cce815260200161224681526020016101b681526020016104c281526020016113c581526020016110838152602001610d288152602001610264815260200161108e8152602001611f8381526020016105f6815260200161021c8152602001607d815260200161181281526020016112e88152602001610fc081526020016123a68152602001612ea78152602001611ecd815260200161056d81526020016127ed81526020016101d081526020016107888152602001610e5e81526020016110a9815260200161237c81526020016122e28152602001612bbd815260200161145981526020016122888152602001610470815260200161235b81526020016121858152602001611e788152602001610c638152602001610b6e81526020016128df81525061040590610400613da7929190613e10565b50348015613db457600080fd5b50604051614bd1380380614bd1833981016040819052613dd391613e80565b600291909155600355600080546001600160a01b039384166001600160a01b03199182161790915560018054929093169116178155600455613ec3565b826104008101928215613e3f579160200282015b82811115613e3f578251825591602001919060010190613e24565b50613e4b929150613e4f565b5090565b5b80821115613e4b5760008155600101613e50565b80516001600160a01b0381168114613e7b57600080fd5b919050565b60008060008060808587031215613e9657600080fd5b613e9f85613e64565b9350613ead60208601613e64565b6040860151606090960151949790965092505050565b610cff80613ed26000396000f3fe608060405234801561001057600080fd5b50600436106100cf5760003560e01c8063546c8b921161008c5780637c8d1cca116100665780637c8d1cca146101a65780639c55be98146101b9578063a8f4014a146101cc578063d70278fd146101df57600080fd5b8063546c8b9214610155578063561a9261146101685780636c16ea471461019357600080fd5b806322d5a946146100d457806326802855146100fd5780632dcb92281461010957806330ae00201461011c5780633a7f0b211461012f5780633e4b63e514610142575b600080fd5b6100e76100e2366004610a24565b6101f2565b6040516100f49190610a69565b60405180910390f35b6101076001600455565b005b6100e7610117366004610aac565b6103cf565b6100e761012a366004610a24565b6104a7565b6100e761013d366004610aac565b61061e565b6100e7610150366004610aac565b6106ed565b6100e7610163366004610b1f565b61071d565b60005461017b906001600160a01b031681565b6040516001600160a01b0390911681526020016100f4565b60015461017b906001600160a01b031681565b6100e76101b4366004610ba4565b610760565b6100e76101c7366004610ba4565b61080f565b6100e76101da366004610aac565b6108ef565b6101076101ed366004610bf2565b610908565b81516060906001905b6001811115610363576000600182901c815b8181101561035457600060016102238786610c4a565b61022d9190610c5d565b9050600061040561023e8486610c4a565b610400811061024f5761024f610c70565b01549050845b610260836001610c4a565b8110156103395760008b828151811061027b5761027b610c70565b6020026020010151905060008c8a846102949190610c4a565b815181106102a4576102a4610c70565b602002602001015190508b806102bc576102bc610c86565b8183088d84815181106102d1576102d1610c70565b6020026020010181815250508b806102eb576102eb610c86565b848d806102fa576102fa610c86565b838f6103069190610c5d565b8508098d6103148c86610c4a565b8151811061032457610324610c70565b60209081029190910101525050600101610255565b50610348600188901b86610c4a565b9450505060010161020d565b505050600191821b911c6101fb565b505060035460005b84518110156103c357838061038257610382610c86565b8286838151811061039557610395610c70565b6020026020010151098582815181106103b0576103b0610c70565b602090810291909101015260010161036b565b84925050505b92915050565b606082518451146103e2576103e2610c9c565b6000845167ffffffffffffffff8111156103fe576103fe61096f565b604051908082528060200260200182016040528015610427578160200160208202803683370190505b50905060005b855181101561049e57838061044457610444610c86565b85828151811061045657610456610c70565b602002602001015187838151811061047057610470610c70565b60200260200101510982828151811061048b5761048b610c70565b602090810291909101015260010161042d565b50949350505050565b81516060908060015b8281101561061457600182901c915060005b8181101561060b57600060016104d88584610cb2565b901b9050600060016104ea8684610c4a565b6104f49190610c5d565b9050600060056105048587610c4a565b610400811061051557610515610c70565b01549050825b610526836001610c4a565b8110156105fb5760008b828151811061054157610541610c70565b6020026020010151905060008b8061055b5761055b610c86565b848e6105678c87610c4a565b8151811061057757610577610c70565b60200260200101510990508b8061059057610590610c86565b8183088d84815181106105a5576105a5610c70565b6020026020010181815250508b806105bf576105bf610c86565b6105c9828e610c5d565b83088d6105d68b86610c4a565b815181106105e6576105e6610c70565b6020908102919091010152505060010161051b565b5050600190920191506104c29050565b5060011b6104b0565b5093949350505050565b6060825184511461063157610631610c9c565b6000845167ffffffffffffffff81111561064d5761064d61096f565b604051908082528060200260200182016040528015610676578160200160208202803683370190505b50905060005b855181101561049e57838061069357610693610c86565b8582815181106106a5576106a5610c70565b60200260200101518783815181106106bf576106bf610c70565b6020026020010151088282815181106106da576106da610c70565b602090810291909101015260010161067c565b606061071561070f6106ff86856104a7565b61070986866104a7565b856103cf565b836101f2565b949350505050565b600054606090610759906107489061073f9086906001600160a01b0316610760565b846002546103cf565b6001546001600160a01b031661080f565b9392505050565b8151600254606091908190600190610776610951565b82851115610803578360011c935060005b808411156107f75784810260011b60018682010360208087850102858c3c815b806001830111156107ec57602060018201028c01805160208a028201915087875183510988818a038308835260208b02830392508881830890925250506001016107a7565b505050600101610787565b508260011b9250610776565b50959695505050505050565b81516002546003546060926001929091610827610951565b60018411156108be5760008460011c60005b808211156108aa5760018884010360208084840102868d3c835b8060018301111561089857602060018201028d01805160208c028201915081518a89518c838e03850809835260208d02830392508a8183089092525050600101610853565b5050600188811b939093019201610839565b5050508460011b94508360011c9350610827565b60005b80895111156108e257602060018201028901848482510990526001016108c1565b5096979650505050505050565b606061071561070f61090186856104a7565b85856103cf565b6004541561094b5760028290556003819055600080546001600160a01b038087166001600160a01b03199283161790925560018054928616929091169190911790555b50505050565b60405180602001604052806001906020820280368337509192915050565b634e487b7160e01b600052604160045260246000fd5b600082601f83011261099657600080fd5b813567ffffffffffffffff8111156109b0576109b061096f565b8060051b604051601f19603f830116810181811067ffffffffffffffff821117156109dd576109dd61096f565b6040529182526020818501810192908101868411156109fb57600080fd5b6020860192505b83831015610a1a578235815260209283019201610a02565b5095945050505050565b60008060408385031215610a3757600080fd5b823567ffffffffffffffff811115610a4e57600080fd5b610a5a85828601610985565b95602094909401359450505050565b602080825282518282018190526000918401906040840190835b81811015610aa1578351835260209384019390920191600101610a83565b509095945050505050565b600080600060608486031215610ac157600080fd5b833567ffffffffffffffff811115610ad857600080fd5b610ae486828701610985565b935050602084013567ffffffffffffffff811115610b0157600080fd5b610b0d86828701610985565b93969395505050506040919091013590565b60008060408385031215610b3257600080fd5b823567ffffffffffffffff811115610b4957600080fd5b610b5585828601610985565b925050602083013567ffffffffffffffff811115610b7257600080fd5b610b7e85828601610985565b9150509250929050565b80356001600160a01b0381168114610b9f57600080fd5b919050565b60008060408385031215610bb757600080fd5b823567ffffffffffffffff811115610bce57600080fd5b610bda85828601610985565b925050610be960208401610b88565b90509250929050565b60008060008060808587031215610c0857600080fd5b610c1185610b88565b9350610c1f60208601610b88565b93969395505050506040820135916060013590565b634e487b7160e01b600052601160045260246000fd5b808201808211156103c9576103c9610c34565b818103818111156103c9576103c9610c34565b634e487b7160e01b600052603260045260246000fd5b634e487b7160e01b600052601260045260246000fd5b634e487b7160e01b600052600160045260246000fd5b80820281158282048414176103c9576103c9610c3456fea264697066735822122066f1098707f70fdaea228715668170aa00e647da7e21c62f80bbb192b9d47f3764736f6c634300081b0033","linkReferences":{}},"methodIdentifiers":{"ZKNOX_NTTFW(uint256[],address)":"7c8d1cca","ZKNOX_NTTFW(uint256[],uint256)":"30ae0020","ZKNOX_NTTINV(uint256[],address)":"9c55be98","ZKNOX_NTTINV(uint256[],uint256)":"22d5a946","ZKNOX_NTT_HALFMUL(uint256[],uint256[])":"546c8b92","ZKNOX_NTT_HALFMUL(uint256[],uint256[],uint256)":"a8f4014a","ZKNOX_VECADDMOD(uint256[],uint256[],uint256)":"3a7f0b21","ZKNOX_VECMULMOD(uint256[],uint256[],uint256)":"2dcb9228","make_immutable()":"26802855","mul_NTTPoly(uint256[],uint256[],uint256)":"3e4b63e5","o_psi_inv_rev()":"6c16ea47","o_psirev()":"561a9261","update(address,address,uint256,uint256)":"d70278fd"},"id":19}